:020000040800F2
:100000008806002075010008130700081107000882
:1000100000000000000000000000000000000000E0
:1000200000000000000000000000000017070008AA
:100030000000000000000000150700081907000874
:100040008701000800000000870100088701000800
:100050008701000887010008870100088701000860
:1000600000000000870100088701000887010008E0
:1000700087010008870100088701000800000000D0
:1000800087010008870100080000000087010008C0
:100090008701000887010008870100088701000820
:1000A0008701000887010008870100088701000810
:1000B0008701000800F002F800F04CF812A030C8E8
:1000C000083824182D18AC4201D100F043F80FCCA9
:1000D000A246AB460CA730CF2D1B083F3F197C42F0
:1000E0007F1E54442D090426F441641EAC4201D302
:1000F00000F030F80126334200D0FB1A3343984712
:1001000054465D46DFE70000D4090000F409000012
:10011000103A02D378C878C1FAD8520701D330C850
:1001200030C101D504680C607047000070470000C2
:100130000023002400250026103A01D378C1FBD803
:10014000520700D330C100D50B6070471FB51FBDEB
:1001500010B510BD00F029F91146FFF7F7FF00F0C8
:100160005DFB00F041F903B4FFF7F2FF03BC00F0C0
:1001700047F900000748804707480047FEE7FEE7C9
:10018000FEE7FEE7FEE7FEE704480549054A064BA1
:100190007047000021070008B50000088800002013
:1001A000880600208802002088020020002203091F
:1001B0008B4273D3030A8B4258D3030B8B423CD33D
:1001C000030C8B4221D312E003460B437FD4002261
:1001D00043088B4274D303098B425FD3030A8B42DB
:1001E00044D3030B8B4228D3030C8B420DD309025B
:1001F000FF2212BA030C8B4202D31212090265D0FD
:10020000030B8B4219D300E0090AC30B8B4201D3C5
:10021000CB03C01A5241830B8B4201D38B03C01A0C
:100220005241430B8B4201D34B03C01A5241030B83
:100230008B4201D30B03C01A5241C30A8B4201D334
:10024000CB02C01A5241830A8B4201D38B02C01ADF
:100250005241430A8B4201D34B02C01A5241030A56
:100260008B4201D30B02C01A5241CDD2C3098B423B
:1002700001D3CB01C01A524183098B4201D38B01B8
:10028000C01A524143098B4201D34B01C01A52415B
:1002900003098B4201D30B01C01A5241C3088B42A0
:1002A00001D3CB00C01A524183088B4201D38B008B
:1002B000C01A524143088B4201D34B00C01A52412D
:1002C000411A00D201465241104670475DE0CA0F04
:1002D00000D04942031000D3404253409C460022C4
:1002E00003098B422DD3030A8B4212D38901FC22CE
:1002F00012BA030A8B420CD3890192118B4208D3A4
:10030000890192118B4204D389013AD0921100E005
:100310008909C3098B4201D3CB01C01A5241830919
:100320008B4201D38B01C01A524143098B4201D346
:100330004B01C01A524103098B4201D30B01C01A71
:100340005241C3088B4201D3CB00C01A52418308EB
:100350008B4201D38B00C01A5241D9D243088B4241
:1003600001D34B00C01A5241411A00D201465241FA
:10037000104663465B1001D34042002B00D5494232
:10038000704763465B1000D3404201B50449002822
:1003900002DC491C084000E00846C046C04602BDD9
:1003A000FFFFFF7F704770477047754600F024F8E5
:1003B000AE46050069465346C008C000854618B0E1
:1003C00020B5FFF7E1FE60BCB64600260027C0C599
:1003D000C0C5C0C5C0C5C0C5C0C5C0C5C0C5403DFD
:1003E000490849008D46704710B50446C046C046CE
:1003F0002046FFF7B8FE10BD0048704718000020E7
:1004000001491820ABBEFEE726000200704700003D
:10041000B0B5044600F0F0F80546601C02D09448E0
:100420000078041900F0E8F8401BA042FAD3B0BDF0
:10043000F0B58BB008900A68002A00D1CAE00F46D8
:1004400065480899814201D0052000E00320009012
:1004500000231C46099301970CE0294331605B1C83
:100460003A681046D8400999091D0991A41C002832
:1004700000D1AFE0012604969E4032400392EED0B8
:100480000793384603273946A140C94323464468A9
:1004900025463D406A1E012A0294069313D8059111
:1004A00008998A68059F3A40C7689F4017438F6044
:1004B000E206D20F079B9A404F68B743084605995A
:1004C0001743476007E0032D0898079B03D13D467B
:1004D000019F029C20E0C2680A40019FBE68069806
:1004E000864016430898C6600898022D029C13D1D6
:1004F00005911C21099A11400F228A40DD08AD00A8
:1005000045192E6A96433A698A40059932430898FC
:100510002A627C6803252540069B9D4002680A40AC
:100520002A430260A1031C46079B890F97D05C48B1
:100530000168049E31430160016831400A91032241
:10054000194691430A9A26480D580922D20608985E
:10055000904208D0E24A904206D0224A9042009E41
:1005600002D1022600E000260C22099802403746FC
:100570000F269640B5431A48091897402F430F603D
:10058000164EB168019F7868C20210D5039D2943B9
:10059000B160F168820210D4A943F16071688203EE
:1005A00010D4A94371603168C00311D555E7039D8C
:1005B000A943B160F1688202EED52943F160716808
:1005C0008203EED5294371603168C00300D544E74A
:1005D000A94343E70BB0F0BD000C00480004014004
:1005E0000800014000080048002A02D0182281506B
:1005F0007047282281507047054800687047C04600
:100600001B48007802490A68101808607047C04605
:100610008000002080B50648016810220A4302606D
:10062000032000F007F800F027F8002080BDC04646
:100630000020024070B504467D20C0000C4E317889
:1006400000F050F901460B48006800F04BF900F04B
:1006500045F80125032C08D8002806D10025E843D9
:1006600021462A4600F01EF87460284670BDC04638
:10067000000000200800002082B009480168012223
:10068000114301600168114001910199110742680D
:100690000A434260406808400090009802B07047EA
:1006A00018100240002805D40322034693430A4A47
:1006B0009A1803E00C220240064BD2188007C00EA5
:1006C0008901C9B28140FF238340106898430843E1
:1006D0001060704714ED00E000E400E0401E010EE1
:1006E00001D0012070470749074A50600748036856
:1006F0000B400321890759180160002090600721F1
:1007000011607047FFFFFF0010E000E020ED00E007
:10071000FEE7FEE77047704780B5FFF771FF80BDC9
:1007200070470000F0B581B0292141430A0B6946AA
:100730008A70CD224243D20A0A231C465443001B2E
:1007400008701A205043000A5843101A4870FFF7E7
:1007500053FF2F4F7968401A062857D30920C40643
:100760003868C1B2022919D82A4E3146FF31000635
:10077000450DE940CAB204212046FFF735FFEE409F
:10078000F2B208212046FFF72FFFFF200230E84099
:10079000C2B210212046FFF727FF38686946085C7F
:1007A0001D490F5C01253A462A4002262046314663
:1007B000FFF71AFFB807C20F47483146FFF714FF8B
:1007C0007807C20FE9032046FFF70EFF3807C20F74
:1007D000434E30462946FFF707FFF806C20F402177
:1007E0002046FFF701FFB806C20F20462946FFF753
:1007F000FBFE7806C20F20213046FFF7F5FE044CC1
:100800002068401C2060FFF7F7FE606001B0F0BD7B
:1008100078000020010001000C00002088B0FFF7E4
:10082000F9FE002407940127B9052A4802680A4303
:10083000026002680A4002920299790402680A433F
:10084000026002680A4002920299B90402680A43EF
:10085000026000680840029002981F480226314654
:100860002246FFF7C1FE0920C00601901B4922461F
:10087000FFF7BAFE1A48212529462246FFF7B4FEA3
:10088000069405940497039603AE13483146FFF788
:10089000CFFD0694059404971048039001983146C3
:1008A000FFF7C6FD06940594049703950C4831465E
:1008B000FFF7BEFDE0B2FFF735FF7D20C5002846FB
:1008C000FFF7A6FDA0B2401C2946FFF76FFC0C46BF
:1008D000F0E7C04614100240001400485F8000009A
:1008E0000004004843088B421AD3002203098B42BC
:1008F00079D3030A8B425ED3030B8B4242D3030CA2
:100900008B4227D30902FF2212BA030C8B4202D377
:100910001212090203D0030B8B4233D31AE0D3E047
:10092000411A8041401C704703460B4371D4430871
:100930008B42F5D3002203098B4254D3030A8B4226
:1009400039D3030B8B421DD3030C8B4202D3944645
:100950006EE0090AC30B8B4201D3CB03C01A52418C
:10096000830B8B4201D38B03C01A5241430B8B4242
:1009700001D34B03C01A5241030B8B4201D30B032B
:10098000C01A5241C30A8B4201D3CB02C01A524152
:10099000830A8B4201D38B02C01A5241430A8B4215
:1009A00001D34B02C01A5241030A8B4201D30B02FE
:1009B000C01A5241CDD2C3098B4201D3CB01C01A18
:1009C000524183098B4201D38B01C01A5241430922
:1009D0008B4201D34B01C01A524103098B4201D310
:1009E0000B01C01A5241C3088B4201D3CB00C01A7D
:1009F000524183088B4201D38B00C01A52414308F5
:100A00008B4201D34B00C01A5241411A524110008F
:100A10007047CA0F00D04942031000D340425340F0
:100A200000229C4603098B422DD3030A8B4212D32A
:100A30008901FC2212BA030A8B420CD3890192115C
:100A40008B4208D3890192118B4204D3890137D09C
:100A5000921100E08909C3098B4201D3CB01C01A6E
:100A6000524183098B4201D38B01C01A5241430981
:100A70008B4201D34B01C01A524103098B4201D36F
:100A80000B01C01A5241C3088B4201D3CB00C01ADC
:100A9000524183088B4201D38B00C01A5241D9D2F4
:100AA00043088B4201D34B00C01A5241411A00D275
:100AB00001465241104663465B1000D340427047E6
:100AC00063465B1000D3404201B50021004201D0D3
:100AD000C9430846C046C04602BD0000000B0008DE
:100AE000000000201800000010010008180B00088A
:100AF000180000207006000030010008000000000F
:100B0000010000000400000000127A003F065B4F65
:080B1000666D7D077F6F000098
:04000005080000B53A
:00000001FF
